:1000000000000000000000000000000000000000F0
:1000100000000000000000000000000000000000E0
:1000200000000000000000000000000000000000D0
:1000300000000000000000000000000000000000C0
:1000400000000000000000000000000000000000B0
:1000500000000000000000000000000000000000A0
:100060000000000000000000000000000000000090
:100070000000000000000000000000000000000080
:100080000000000000000000000000000000000070
:100090000000000000000000000000000000000060
:1000A0000000000000000000000000000000000050
:1000B0000000000000000000000000000000000040
:1000C0000000000000000000000000000000000030
:1000D0000000000000000000000000000000000020
:1000E0000000000000000000000000000000000010
:1000F0000000000000000000000000000000000000
:1001000018000000A8200001C0000811C140000034
:1001100018800000A8840E0C440020001500000088
:1001200000000000000000000000000000000000CF
:1001300000000000000000000000000000000000BF
:1001400000000000000000000000000000000000AF
:10015000000000000000000000000000000000009F
:100500009C210001B560500019801000E16B60056E
:10051000C14058009C420001A86200001500000282
:1005200024000000000000000000000000000000A7
:1005300000000000000000000000000000000000BB
:1005400000000000000000000000000000000000AB
:10055000000000000000000000000000000000009B
:10056000000000000000000000000000000000008B
:10057000000000000000000000000000000000007B
:10058000000000000000000000000000000000006B
:10059000000000000000000000000000000000005B
:1005A000000000000000000000000000000000004B
:1005B000000000000000000000000000000000003B
:1005C000000000000000000000000000000000002B
:1005D000000000000000000000000000000000001B
:1005E000000000000000000000000000000000000B
:1005F00000000000000000000000000000000000FB
:1006000000000000000000000000000000000000EA
:1006100000000000000000000000000000000000DA
:1006200000000000000000000000000000000000CA
:1006300000000000000000000000000000000000BA
:1006400000000000000000000000000000000000AA
:10065000000000000000000000000000000000009A
:10066000000000000000000000000000000000008A
:10067000000000000000000000000000000000007A
:10068000000000000000000000000000000000006A
:10069000000000000000000000000000000000005A
:1006A000000000000000000000000000000000004A
:1006B000000000000000000000000000000000003A
:1006C000000000000000000000000000000000002A
:1006D000000000000000000000000000000000001A
:1006E000000000000000000000000000000000000A
:1006F00000000000000000000000000000000000FA
:100700001860BAAAA863AAAD150000010000000095
:1007100000000000000000000000000000000000D9
:1007200000000000000000000000000000000000C9
:1007300000000000000000000000000000000000B9
:1007400000000000000000000000000000000000A9
:0C0E00001860BAAAA863AAAD1500000192
:100E0C00040000021500000018200000184000002B
:100E1C00194000001A80BAAAAA94AAAD9D4A0001F2
:100E2C00B4600011A8630002C1400000C00018119A
:100E3C0018806000A8C00258E0A43004C140000132
:100E4C00C1402800C14000011820000018400000DB
:100E5C009C210004D400A000868000009C2100048A
:100E6C009C2100049C2100049C2100049C21000472
:100E7C009C2100049C210004E06108041500000280
:100E8C009C210004D400A000868000009C2100045A
:100E9C009C2100049C2100049C2100049C21000442
:100EAC009C2100049C210004E06108041500000250
:100EBC009C210004D400A000868000009C2100042A
:100ECC009C2100049C2100049C2100049C21000412
:100EDC009C2100049C210004E06108041500000220
:100EEC009C210004D400A000868000009C210004FA
:100EFC009C2100049C2100049C2100049C210004E2
:100F0C009C2100049C210004E061080415000002EF
:100F1C009C210004D400A000868000009C210004C9
:100F2C009C2100049C2100049C2100049C210004B1
:100F3C009C2100049C210004E061080415000002BF
:100F4C009C210004D400A000868000009C21000499
:100F5C009C2100049C2100049C2100049C21000481
:100F6C009C2100049C210004E0610804150000028F
:100F7C009C210004D400A000868000009C21000469
:100F8C009C2100049C2100049C2100049C21000451
:100F9C009C2100049C210004E0610804150000025F
:100FAC009C210004D400A000868000009C21000439
:100FBC009C2100049C2100049C2100049C21000421
:100FCC009C2100049C210004E0610804150000022F
:100FDC009C210004D400A000868000009C21000409
:100FEC009C2100049C2100049C2100049C210004F1
:100FFC009C2100049C210004E061080415000002FF
:10100C009C210004D400A000868000009C210004D8
:10101C009C2100049C2100049C2100049C210004C0
:10102C009C2100049C210004E061080415000002CE
:10103C009C210004D400A000868000009C210004A8
:10104C009C2100049C2100049C2100049C21000490
:10105C009C2100049C210004E0610804150000029E
:10106C009C210004D400A000868000009C21000478
:10107C009C2100049C2100049C2100049C21000460
:10108C009C2100049C210004E0610804150000026E
:10109C009C210004D400A000868000009C21000448
:1010AC009C2100049C2100049C2100049C21000430
:1010BC009C2100049C210004E0610804150000023E
:1010CC009C210004D400A000868000009C21000418
:1010DC009C2100049C2100049C2100049C21000400
:1010EC009C2100049C210004E0610804150000020E
:1010FC009C210004D400A000868000009C210004E8
:10110C009C2100049C2100049C2100049C210004CF
:10111C009C2100049C210004E061080415000002DD
:10112C009C210004D400A000868000009C210004B7
:10113C009C2100049C2100049C2100049C2100049F
:10114C009C2100049C210004E061080415000002AD
:10115C009C210004D400A000868000009C21000487
:10116C009C2100049C2100049C2100049C2100046F
:10117C009C2100049C210004E0610804150000027D
:10118C009C210004D400A000868000009C21000457
:10119C009C2100049C2100049C2100049C2100043F
:1011AC009C2100049C210004E0610804150000024D
:1011BC009C210004D400A000868000009C21000427
:1011CC009C2100049C2100049C2100049C2100040F
:1011DC009C2100049C210004E0610804150000021D
:1011EC009C210004D400A000868000009C210004F7
:1011FC009C2100049C2100049C2100049C210004DF
:10120C009C2100049C210004E061080415000002EC
:10121C009C210004D400A000868000009C210004C6
:10122C009C2100049C2100049C2100049C210004AE
:10123C009C2100049C210004E061080415000002BC
:10124C009C210004D400A000868000009C21000496
:10125C009C2100049C2100049C2100049C2100047E
:10126C009C2100049C210004E0610804150000028C
:10127C009C210004D400A000868000009C21000466
:10128C009C2100049C2100049C2100049C2100044E
:10129C009C2100049C210004E0610804150000025C
:1012AC009C210004D400A000868000009C21000436
:1012BC009C2100049C2100049C2100049C2100041E
:1012CC009C2100049C210004E0610804150000022C
:1012DC009C210004D400A000868000009C21000406
:1012EC009C2100049C2100049C2100049C210004EE
:1012FC009C2100049C210004E061080415000002FC
:10130C009C210004D400A000868000009C210004D5
:10131C009C2100049C2100049C2100049C210004BD
:10132C009C2100049C210004E061080415000002CB
:10133C009C210004D400A000868000009C210004A5
:10134C009C2100049C2100049C2100049C2100048D
:10135C009C2100049C210004E0610804150000029B
:10136C009C210004D400A000868000009C21000475
:10137C009C2100049C2100049C2100049C2100045D
:10138C009C2100049C210004E0610804150000026B
:10139C009C210004D400A000868000009C21000445
:1013AC009C2100049C2100049C2100049C2100042D
:1013BC009C2100049C210004E0610804150000023B
:1013CC009C210004D400A000868000009C21000415
:1013DC009C2100049C2100049C2100049C210004FD
:1013EC009C2100049C210004E0610804150000020B
:1013FC009C210004D400A000868000009C210004E5
:10140C009C2100049C2100049C2100049C210004CC
:10141C009C2100049C210004E061080415000002DA
:10142C009C210004D400A000868000009C210004B4
:10143C009C2100049C2100049C2100049C2100049C
:10144C009C2100049C210004E061080415000002AA
:10145C009C210004D400A000868000009C21000484
:10146C009C2100049C2100049C2100049C2100046C
:10147C009C2100049C210004E0610804150000027A
:10148C009C210004D400A000868000009C21000454
:10149C009C2100049C2100049C2100049C2100043C
:1014AC009C2100049C210004E0610804150000024A
:1014BC009C210004D400A000868000009C21000424
:1014CC009C2100049C2100049C2100049C2100040C
:1014DC009C2100049C210004E0610804150000021A
:1014EC009C210004D400A000868000009C210004F4
:1014FC009C2100049C2100049C2100049C210004DC
:10150C009C2100049C210004E061080415000002E9
:10151C009C210004D400A000868000009C210004C3
:10152C009C2100049C2100049C2100049C210004AB
:10153C009C2100049C210004E061080415000002B9
:10154C009C210004D400A000868000009C21000493
:10155C009C2100049C2100049C2100049C2100047B
:10156C009C2100049C210004E06108041500000289
:10157C009C210004D400A000868000009C21000463
:10158C009C2100049C2100049C2100049C2100044B
:10159C009C2100049C210004E06108041500000259
:1015AC009C210004D400A000868000009C21000433
:1015BC009C2100049C2100049C2100049C2100041B
:1015CC009C2100049C210004E06108041500000229
:1015DC009C210004D400A000868000009C21000403
:1015EC009C2100049C2100049C2100049C210004EB
:1015FC009C2100049C210004E061080415000002F9
:10160C009C210004D400A000868000009C210004D2
:10161C009C2100049C2100049C2100049C210004BA
:10162C009C2100049C210004E061080415000002C8
:10163C009C210004D400A000868000009C210004A2
:10164C009C2100049C2100049C2100049C2100048A
:10165C009C2100049C210004E06108041500000298
:10166C009C210004D400A000868000009C21000472
:10167C009C2100049C2100049C2100049C2100045A
:10168C009C2100049C210004E06108041500000268
:10169C009C210004D400A000868000009C21000442
:1016AC009C2100049C2100049C2100049C2100042A
:1016BC009C2100049C210004E06108041500000238
:1016CC009C210004D400A000868000009C21000412
:1016DC009C2100049C2100049C2100049C210004FA
:1016EC009C2100049C210004E06108041500000208
:1016FC009C210004D400A000868000009C210004E2
:10170C009C2100049C2100049C2100049C210004C9
:10171C009C2100049C210004E061080415000002D7
:10172C009C210004D400A000868000009C210004B1
:10173C009C2100049C2100049C2100049C21000499
:10174C009C2100049C210004E061080415000002A7
:10175C009C210004D400A000868000009C21000481
:10176C009C2100049C2100049C2100049C21000469
:10177C009C2100049C210004E06108041500000277
:10178C009C210004D400A000868000009C21000451
:10179C009C2100049C2100049C2100049C21000439
:1017AC009C2100049C210004E06108041500000247
:1017BC009C210004D400A000868000009C21000421
:1017CC009C2100049C2100049C2100049C21000409
:1017DC009C2100049C210004E06108041500000217
:1017EC009C210004D400A000868000009C210004F1
:1017FC009C2100049C2100049C2100049C210004D9
:10180C009C2100049C210004E061080415000002E6
:10181C009C210004D400A000868000009C210004C0
:10182C009C2100049C2100049C2100049C210004A8
:10183C009C2100049C210004E061080415000002B6
:10184C009C210004D400A000868000009C21000490
:10185C009C2100049C2100049C2100049C21000478
:10186C009C2100049C210004E06108041500000286
:10187C009C210004D400A000868000009C21000460
:10188C009C2100049C2100049C2100049C21000448
:10189C009C2100049C210004E06108041500000256
:1018AC009C210004D400A000868000009C21000430
:1018BC009C2100049C2100049C2100049C21000418
:1018CC009C2100049C210004E06108041500000226
:1018DC009C210004D400A000868000009C21000400
:1018EC009C2100049C2100049C2100049C210004E8
:1018FC009C2100049C210004E061080415000002F6
:10190C009C210004D400A000868000009C210004CF
:10191C009C2100049C2100049C2100049C210004B7
:10192C009C2100049C210004E061080415000002C5
:10193C009C210004D400A000868000009C2100049F
:10194C009C2100049C2100049C2100049C21000487
:10195C009C2100049C210004E06108041500000295
:10196C009C210004D400A000868000009C2100046F
:10197C009C2100049C2100049C2100049C21000457
:10198C009C2100049C210004E06108041500000265
:10199C009C210004D400A000868000009C2100043F
:1019AC009C2100049C2100049C2100049C21000427
:1019BC009C2100049C210004E06108041500000235
:1019CC009C210004D400A000868000009C2100040F
:1019DC009C2100049C2100049C2100049C210004F7
:1019EC009C2100049C210004E06108041500000205
:1019FC009C210004D400A000868000009C210004DF
:101A0C009C2100049C2100049C2100049C210004C6
:101A1C009C2100049C210004E061080415000002D4
:101A2C009C210004D400A000868000009C210004AE
:101A3C009C2100049C2100049C2100049C21000496
:101A4C009C2100049C210004E061080415000002A4
:101A5C009C210004D400A000868000009C2100047E
:101A6C009C2100049C2100049C2100049C21000466
:101A7C009C2100049C210004E06108041500000274
:101A8C009C210004D400A000868000009C2100044E
:101A9C009C2100049C2100049C2100049C21000436
:101AAC009C2100049C210004E06108041500000244
:101ABC009C210004D400A000868000009C2100041E
:101ACC009C2100049C2100049C2100049C21000406
:101ADC009C2100049C210004E06108041500000214
:101AEC009C210004D400A000868000009C210004EE
:101AFC009C2100049C2100049C2100049C210004D6
:101B0C009C2100049C210004E061080415000002E3
:101B1C009C210004D400A000868000009C210004BD
:101B2C009C2100049C2100049C2100049C210004A5
:101B3C009C2100049C210004E061080415000002B3
:101B4C009C210004D400A000868000009C2100048D
:101B5C009C2100049C2100049C2100049C21000475
:101B6C009C2100049C210004E06108041500000283
:101B7C009C210004D400A000868000009C2100045D
:101B8C009C2100049C2100049C2100049C21000445
:101B9C009C2100049C210004E06108041500000253
:101BAC009C210004D400A000868000009C2100042D
:101BBC009C2100049C2100049C2100049C21000415
:101BCC009C2100049C210004E06108041500000223
:101BDC009C210004D400A000868000009C210004FD
:101BEC009C2100049C2100049C2100049C210004E5
:101BFC009C2100049C210004E061080415000002F3
:101C0C009C210004D400A000868000009C210004CC
:101C1C009C2100049C2100049C2100049C210004B4
:101C2C009C2100049C210004E061080415000002C2
:101C3C009C210004D400A000868000009C2100049C
:101C4C009C2100049C2100049C2100049C21000484
:101C5C009C2100049C210004E06108041500000292
:101C6C009C210004D400A000868000009C2100046C
:101C7C009C2100049C2100049C2100049C21000454
:101C8C009C2100049C210004E06108041500000262
:101C9C009C210004D400A000868000009C2100043C
:101CAC009C2100049C2100049C2100049C21000424
:101CBC009C2100049C210004E06108041500000232
:101CCC009C210004D400A000868000009C2100040C
:101CDC009C2100049C2100049C2100049C210004F4
:101CEC009C2100049C210004E06108041500000202
:101CFC009C210004D400A000868000009C210004DC
:101D0C009C2100049C2100049C2100049C210004C3
:101D1C009C2100049C210004E061080415000002D1
:101D2C009C210004D400A000868000009C210004AB
:101D3C009C2100049C2100049C2100049C21000493
:101D4C009C2100049C210004E061080415000002A1
:101D5C009C210004D400A000868000009C2100047B
:101D6C009C2100049C2100049C2100049C21000463
:101D7C009C2100049C210004E06108041500000271
:101D8C009C210004D400A000868000009C2100044B
:101D9C009C2100049C2100049C2100049C21000433
:101DAC009C2100049C210004E06108041500000241
:101DBC009C210004D400A000868000009C2100041B
:101DCC009C2100049C2100049C2100049C21000403
:101DDC009C2100049C210004E06108041500000211
:101DEC009C210004D400A000868000009C210004EB
:101DFC009C2100049C2100049C2100049C210004D3
:101E0C009C2100049C210004E061080415000002E0
:101E1C009C210004D400A000868000009C210004BA
:101E2C009C2100049C2100049C2100049C210004A2
:101E3C009C2100049C210004E061080415000002B0
:101E4C009C210004D400A000868000009C2100048A
:101E5C009C2100049C2100049C2100049C21000472
:101E6C009C2100049C210004E06108041500000280
:101E7C009C210004D400A000868000009C2100045A
:101E8C009C2100049C2100049C2100049C21000442
:101E9C009C2100049C210004E06108041500000250
:101EAC009C210004D400A000868000009C2100042A
:101EBC009C2100049C2100049C2100049C21000412
:101ECC009C2100049C210004E06108041500000220
:101EDC009C210004D400A000868000009C210004FA
:101EEC009C2100049C2100049C2100049C210004E2
:101EFC009C2100049C210004E061080415000002F0
:101F0C009C210004D400A000868000009C210004C9
:101F1C009C2100049C2100049C2100049C210004B1
:101F2C009C2100049C210004E061080415000002BF
:101F3C009C210004D400A000868000009C21000499
:101F4C009C2100049C2100049C2100049C21000481
:101F5C009C2100049C210004E0610804150000028F
:101F6C009C210004D400A000868000009C21000469
:101F7C009C2100049C2100049C2100049C21000451
:101F8C009C2100049C210004E0610804150000025F
:101F9C009C210004D400A000868000009C21000439
:101FAC009C2100049C2100049C2100049C21000421
:101FBC009C2100049C210004E0610804150000022F
:101FCC009C210004D400A000868000009C21000409
:101FDC009C2100049C2100049C2100049C210004F1
:101FEC009C2100049C210004E061080415000002FF
:101FFC009C210004D400A000868000009C210004D9
:10200C009C2100049C2100049C2100049C210004C0
:10201C009C2100049C210004E061080415000002CE
:10202C009C210004D400A000868000009C210004A8
:10203C009C2100049C2100049C2100049C21000490
:10204C009C2100049C210004E0610804150000029E
:10205C009C210004D400A000868000009C21000478
:10206C009C2100049C2100049C2100049C21000460
:10207C009C2100049C210004E0610804150000026E
:10208C009C210004D400A000868000009C21000448
:10209C009C2100049C2100049C2100049C21000430
:1020AC009C2100049C210004E0610804150000023E
:1020BC009C210004D400A000868000009C21000418
:1020CC009C2100049C2100049C2100049C21000400
:1020DC009C2100049C210004E0610804150000020E
:1020EC009C210004D400A000868000009C210004E8
:1020FC009C2100049C2100049C2100049C210004D0
:10210C009C2100049C210004E061080415000002DD
:10211C009C210004D400A000868000009C210004B7
:10212C009C2100049C2100049C2100049C2100049F
:10213C009C2100049C210004E061080415000002AD
:10214C009C210004D400A000868000009C21000487
:10215C009C2100049C2100049C2100049C2100046F
:10216C009C2100049C210004E0610804150000027D
:10217C009C210004D400A000868000009C21000457
:10218C009C2100049C2100049C2100049C2100043F
:10219C009C2100049C210004E0610804150000024D
:1021AC009C210004D400A000868000009C21000427
:1021BC009C2100049C2100049C2100049C2100040F
:1021CC009C2100049C210004E0610804150000021D
:1021DC009C210004D400A000868000009C210004F7
:1021EC009C2100049C2100049C2100049C210004DF
:1021FC009C2100049C210004E061080415000002ED
:10220C009C210004D400A000868000009C210004C6
:10221C009C2100049C2100049C2100049C210004AE
:10222C009C2100049C210004E061080415000002BC
:10223C009C210004D400A000868000009C21000496
:10224C009C2100049C2100049C2100049C2100047E
:10225C009C2100049C210004E0610804150000028C
:10226C009C210004D400A000868000009C21000466
:10227C009C2100049C2100049C2100049C2100044E
:10228C009C2100049C210004E0610804150000025C
:10229C009C210004D400A000868000009C21000436
:1022AC009C2100049C2100049C2100049C2100041E
:1022BC009C2100049C210004E0610804150000022C
:1022CC009C210004D400A000868000009C21000406
:1022DC009C2100049C2100049C2100049C210004EE
:1022EC009C2100049C210004E061080415000002FC
:1022FC009C210004D400A000868000009C210004D6
:10230C009C2100049C2100049C2100049C210004BD
:10231C009C2100049C210004E061080415000002CB
:10232C009C210004D400A000868000009C210004A5
:10233C009C2100049C2100049C2100049C2100048D
:10234C009C2100049C210004E0610804150000029B
:10235C009C210004D400A000868000009C21000475
:10236C009C2100049C2100049C2100049C2100045D
:10237C009C2100049C210004E0610804150000026B
:10238C009C210004D400A000868000009C21000445
:10239C009C2100049C2100049C2100049C2100042D
:1023AC009C2100049C210004E0610804150000023B
:1023BC009C210004D400A000868000009C21000415
:1023CC009C2100049C2100049C2100049C210004FD
:1023DC009C2100049C210004E0610804150000020B
:1023EC009C210004D400A000868000009C210004E5
:1023FC009C2100049C2100049C2100049C210004CD
:10240C009C2100049C210004E061080415000002DA
:10241C009C210004D400A000868000009C210004B4
:10242C009C2100049C2100049C2100049C2100049C
:10243C009C2100049C210004E061080415000002AA
:10244C009C210004D400A000868000009C21000484
:10245C009C2100049C2100049C2100049C2100046C
:10246C009C2100049C210004E0610804150000027A
:10247C009C210004D400A000868000009C21000454
:10248C009C2100049C2100049C2100049C2100043C
:10249C009C2100049C210004E0610804150000024A
:1024AC009C210004D400A000868000009C21000424
:1024BC009C2100049C2100049C2100049C2100040C
:1024CC009C2100049C210004E0610804150000021A
:1024DC009C210004D400A000868000009C210004F4
:1024EC009C2100049C2100049C2100049C210004DC
:1024FC009C2100049C210004E061080415000002EA
:10250C009C210004D400A000868000009C210004C3
:10251C009C2100049C2100049C2100049C210004AB
:10252C009C2100049C210004E061080415000002B9
:10253C009C210004D400A000868000009C21000493
:10254C009C2100049C2100049C2100049C2100047B
:10255C009C2100049C210004E06108041500000289
:10256C009C210004D400A000868000009C21000463
:10257C009C2100049C2100049C2100049C2100044B
:10258C009C2100049C210004E06108041500000259
:10259C009C210004D400A000868000009C21000433
:1025AC009C2100049C2100049C2100049C2100041B
:1025BC009C2100049C210004E06108041500000229
:1025CC009C210004D400A000868000009C21000403
:1025DC009C2100049C2100049C2100049C210004EB
:1025EC009C2100049C210004E061080415000002F9
:1025FC009C210004D400A000868000009C210004D3
:10260C009C2100049C2100049C2100049C210004BA
:10261C009C2100049C210004E061080415000002C8
:10262C009C210004D400A000868000009C210004A2
:10263C009C2100049C2100049C2100049C2100048A
:10264C009C2100049C210004E06108041500000298
:10265C009C210004D400A000868000009C21000472
:10266C009C2100049C2100049C2100049C2100045A
:10267C009C2100049C210004E06108041500000268
:10268C009C210004D400A000868000009C21000442
:10269C009C2100049C2100049C2100049C2100042A
:1026AC009C2100049C210004E06108041500000238
:1026BC009C210004D400A000868000009C21000412
:1026CC009C2100049C2100049C2100049C210004FA
:1026DC009C2100049C210004E06108041500000208
:1026EC009C210004D400A000868000009C210004E2
:1026FC009C2100049C2100049C2100049C210004CA
:10270C009C2100049C210004E061080415000002D7
:10271C009C210004D400A000868000009C210004B1
:10272C009C2100049C2100049C2100049C21000499
:10273C009C2100049C210004E061080415000002A7
:10274C009C210004D400A000868000009C21000481
:10275C009C2100049C2100049C2100049C21000469
:10276C009C2100049C210004E06108041500000277
:10277C009C210004D400A000868000009C21000451
:10278C009C2100049C2100049C2100049C21000439
:10279C009C2100049C210004E06108041500000247
:1027AC009C210004D400A000868000009C21000421
:1027BC009C2100049C2100049C2100049C21000409
:1027CC009C2100049C210004E06108041500000217
:1027DC009C210004D400A000868000009C210004F1
:1027EC009C2100049C2100049C2100049C210004D9
:1027FC009C2100049C210004E061080415000002E7
:10280C009C210004D400A000868000009C210004C0
:10281C009C2100049C2100049C2100049C210004A8
:10282C009C2100049C210004E061080415000002B6
:10283C009C210004D400A000868000009C21000490
:10284C009C2100049C2100049C2100049C21000478
:10285C009C2100049C210004E06108041500000286
:10286C009C210004D400A000868000009C21000460
:10287C009C2100049C2100049C2100049C21000448
:10288C009C2100049C210004E06108041500000256
:10289C009C210004D400A000868000009C21000430
:1028AC009C2100049C2100049C2100049C21000418
:1028BC009C2100049C210004E06108041500000226
:1028CC009C210004D400A000868000009C21000400
:1028DC009C2100049C2100049C2100049C210004E8
:1028EC009C2100049C210004E061080415000002F6
:1028FC009C210004D400A000868000009C210004D0
:10290C009C2100049C2100049C2100049C210004B7
:10291C009C2100049C210004E061080415000002C5
:10292C009C210004D400A000868000009C2100049F
:10293C009C2100049C2100049C2100049C21000487
:10294C009C2100049C210004E06108041500000295
:10295C009C210004D400A000868000009C2100046F
:10296C009C2100049C2100049C2100049C21000457
:10297C009C2100049C210004E06108041500000265
:10298C009C210004D400A000868000009C2100043F
:10299C009C2100049C2100049C2100049C21000427
:1029AC009C2100049C210004E06108041500000235
:1029BC009C210004D400A000868000009C2100040F
:1029CC009C2100049C2100049C2100049C210004F7
:1029DC009C2100049C210004E06108041500000205
:1029EC009C210004D400A000868000009C210004DF
:1029FC009C2100049C2100049C2100049C210004C7
:102A0C009C2100049C210004E061080415000002D4
:102A1C009C210004D400A000868000009C210004AE
:102A2C009C2100049C2100049C2100049C21000496
:102A3C009C2100049C210004E061080415000002A4
:102A4C009C210004D400A000868000009C2100047E
:102A5C009C2100049C2100049C2100049C21000466
:102A6C009C2100049C210004E06108041500000274
:102A7C009C210004D400A000868000009C2100044E
:102A8C009C2100049C2100049C2100049C21000436
:102A9C009C2100049C210004E06108041500000244
:102AAC009C210004D400A000868000009C2100041E
:102ABC009C2100049C2100049C2100049C21000406
:102ACC009C2100049C210004E06108041500000214
:102ADC009C210004D400A000868000009C210004EE
:102AEC009C2100049C2100049C2100049C210004D6
:102AFC009C2100049C210004E061080415000002E4
:102B0C009C210004D400A000868000009C210004BD
:102B1C009C2100049C2100049C2100049C210004A5
:102B2C009C2100049C210004E061080415000002B3
:102B3C009C210004D400A000868000009C2100048D
:102B4C009C2100049C2100049C2100049C21000475
:102B5C009C2100049C210004E06108041500000283
:102B6C009C210004D400A000868000009C2100045D
:102B7C009C2100049C2100049C2100049C21000445
:102B8C009C2100049C210004E06108041500000253
:102B9C009C210004D400A000868000009C2100042D
:102BAC009C2100049C2100049C2100049C21000415
:102BBC009C2100049C210004E06108041500000223
:102BCC009C210004D400A000868000009C210004FD
:102BDC009C2100049C2100049C2100049C210004E5
:102BEC009C2100049C210004E061080415000002F3
:102BFC009C210004D400A000868000009C210004CD
:102C0C009C2100049C2100049C2100049C210004B4
:102C1C009C2100049C210004E061080415000002C2
:102C2C009C210004D400A000868000009C2100049C
:102C3C009C2100049C2100049C2100049C21000484
:102C4C009C2100049C210004E06108041500000292
:102C5C009C210004D400A000868000009C2100046C
:102C6C009C2100049C2100049C2100049C21000454
:102C7C009C2100049C210004E06108041500000262
:102C8C009C210004D400A000868000009C2100043C
:102C9C009C2100049C2100049C2100049C21000424
:102CAC009C2100049C210004E06108041500000232
:102CBC009C210004D400A000868000009C2100040C
:102CCC009C2100049C2100049C2100049C210004F4
:102CDC009C2100049C210004E06108041500000202
:102CEC009C210004D400A000868000009C210004DC
:102CFC009C2100049C2100049C2100049C210004C4
:102D0C009C2100049C210004E061080415000002D1
:102D1C009C210004D400A000868000009C210004AB
:102D2C009C2100049C2100049C2100049C21000493
:102D3C009C2100049C210004E061080415000002A1
:102D4C009C210004D400A000868000009C2100047B
:102D5C009C2100049C2100049C2100049C21000463
:102D6C009C2100049C210004E06108041500000271
:102D7C009C210004D400A000868000009C2100044B
:102D8C009C2100049C2100049C2100049C21000433
:102D9C009C2100049C210004E06108041500000241
:102DAC009C210004D400A000868000009C2100041B
:102DBC009C2100049C2100049C2100049C21000403
:102DCC009C2100049C210004E06108041500000211
:102DDC009C210004D400A000868000009C210004EB
:102DEC009C2100049C2100049C2100049C210004D3
:102DFC009C2100049C210004E061080415000002E1
:102E0C009C210004D400A000868000009C210004BA
:102E1C009C2100049C2100049C2100049C210004A2
:102E2C009C2100049C210004E061080415000002B0
:102E3C009C210004D400A000868000009C2100048A
:102E4C009C2100049C2100049C2100049C21000472
:102E5C009C2100049C210004E06108041500000280
:102E6C009C210004D400A000868000009C2100045A
:102E7C009C2100049C2100049C2100049C21000442
:102E8C009C2100049C210004E06108041500000250
:102E9C009C210004D400A000868000009C2100042A
:102EAC009C2100049C2100049C2100049C21000412
:102EBC009C2100049C210004E06108041500000220
:102ECC009C210004D400A000868000009C210004FA
:102EDC009C2100049C2100049C2100049C210004E2
:102EEC009C2100049C210004E061080415000002F0
:102EFC009C210004D400A000868000009C210004CA
:102F0C009C2100049C2100049C2100049C210004B1
:102F1C009C2100049C210004E061080415000002BF
:102F2C009C210004D400A000868000009C21000499
:102F3C009C2100049C2100049C2100049C21000481
:102F4C009C2100049C210004E0610804150000028F
:102F5C009C210004D400A000868000009C21000469
:102F6C009C2100049C2100049C2100049C21000451
:102F7C009C2100049C210004E0610804150000025F
:102F8C009C210004D400A000868000009C21000439
:102F9C009C2100049C2100049C2100049C21000421
:102FAC009C2100049C210004E0610804150000022F
:102FBC009C210004D400A000868000009C21000409
:102FCC009C2100049C2100049C2100049C210004F1
:102FDC009C2100049C210004E061080415000002FF
:102FEC009C210004D400A000868000009C210004D9
:102FFC009C2100049C2100049C2100049C210004C1
:10300C009C2100049C210004E061080415000002CE
:10301C009C210004D400A000868000009C210004A8
:10302C009C2100049C2100049C2100049C21000490
:10303C009C2100049C210004E0610804150000029E
:10304C009C210004D400A000868000009C21000478
:10305C009C2100049C2100049C2100049C21000460
:10306C009C2100049C210004E0610804150000026E
:10307C009C210004D400A000868000009C21000448
:10308C009C2100049C2100049C2100049C21000430
:10309C009C2100049C210004E0610804150000023E
:1030AC009C210004D400A000868000009C21000418
:1030BC009C2100049C2100049C2100049C21000400
:1030CC009C2100049C210004E0610804150000020E
:1030DC009C210004D400A000868000009C210004E8
:1030EC009C2100049C2100049C2100049C210004D0
:1030FC009C2100049C210004E061080415000002DE
:10310C009C210004D400A000868000009C210004B7
:10311C009C2100049C2100049C2100049C2100049F
:10312C009C2100049C210004E061080415000002AD
:10313C009C210004D400A000868000009C21000487
:10314C009C2100049C2100049C2100049C2100046F
:10315C009C2100049C210004E0610804150000027D
:10316C009C210004D400A000868000009C21000457
:10317C009C2100049C2100049C2100049C2100043F
:10318C009C2100049C210004E0610804150000024D
:10319C009C210004D400A000868000009C21000427
:1031AC009C2100049C2100049C2100049C2100040F
:1031BC009C2100049C210004E0610804150000021D
:1031CC009C210004D400A000868000009C210004F7
:1031DC009C2100049C2100049C2100049C210004DF
:1031EC009C2100049C210004E061080415000002ED
:1031FC009C210004D400A000868000009C210004C7
:10320C009C2100049C2100049C2100049C210004AE
:10321C009C2100049C210004E061080415000002BC
:10322C009C210004D400A000868000009C21000496
:10323C009C2100049C2100049C2100049C2100047E
:10324C009C2100049C210004E0610804150000028C
:10325C009C210004D400A000868000009C21000466
:10326C009C2100049C2100049C2100049C2100044E
:10327C009C2100049C210004E0610804150000025C
:10328C009C210004D400A000868000009C21000436
:10329C009C2100049C2100049C2100049C2100041E
:1032AC009C2100049C210004E0610804150000022C
:1032BC009C210004D400A000868000009C21000406
:1032CC009C2100049C2100049C2100049C210004EE
:1032DC009C2100049C210004E061080415000002FC
:1032EC009C210004D400A000868000009C210004D6
:1032FC009C2100049C2100049C2100049C210004BE
:10330C009C2100049C210004E061080415000002CB
:10331C009C210004D400A000868000009C210004A5
:10332C009C2100049C2100049C2100049C2100048D
:10333C009C2100049C210004E0610804150000029B
:10334C009C210004D400A000868000009C21000475
:10335C009C2100049C2100049C2100049C2100045D
:10336C009C2100049C210004E0610804150000026B
:10337C009C210004D400A000868000009C21000445
:10338C009C2100049C2100049C2100049C2100042D
:10339C009C2100049C210004E0610804150000023B
:1033AC009C210004D400A000868000009C21000415
:1033BC009C2100049C2100049C2100049C210004FD
:1033CC009C2100049C210004E0610804150000020B
:1033DC009C210004D400A000868000009C210004E5
:1033EC009C2100049C2100049C2100049C210004CD
:1033FC009C2100049C210004E061080415000002DB
:10340C009C210004D400A000868000009C210004B4
:10341C009C2100049C2100049C2100049C2100049C
:10342C009C2100049C210004E061080415000002AA
:10343C009C210004D400A000868000009C21000484
:10344C009C2100049C2100049C2100049C2100046C
:10345C009C2100049C210004E0610804150000027A
:10346C009C210004D400A000868000009C21000454
:10347C009C2100049C2100049C2100049C2100043C
:10348C009C2100049C210004E0610804150000024A
:10349C009C210004D400A000868000009C21000424
:1034AC009C2100049C2100049C2100049C2100040C
:1034BC009C2100049C210004E0610804150000021A
:1034CC009C210004D400A000868000009C210004F4
:1034DC009C2100049C2100049C2100049C210004DC
:1034EC009C2100049C210004E061080415000002EA
:1034FC009C210004D400A000868000009C210004C4
:10350C009C2100049C2100049C2100049C210004AB
:10351C009C2100049C210004E061080415000002B9
:10352C009C210004D400A000868000009C21000493
:10353C009C2100049C2100049C2100049C2100047B
:10354C009C2100049C210004E06108041500000289
:10355C009C210004D400A000868000009C21000463
:10356C009C2100049C2100049C2100049C2100044B
:10357C009C2100049C210004E06108041500000259
:10358C009C210004D400A000868000009C21000433
:10359C009C2100049C2100049C2100049C2100041B
:1035AC009C2100049C210004E06108041500000229
:1035BC009C210004D400A000868000009C21000403
:1035CC009C2100049C2100049C2100049C210004EB
:1035DC009C2100049C210004E061080415000002F9
:1035EC009C210004D400A000868000009C210004D3
:1035FC009C2100049C2100049C2100049C210004BB
:10360C009C2100049C210004E061080415000002C8
:10361C009C210004D400A000868000009C210004A2
:10362C009C2100049C2100049C2100049C2100048A
:10363C009C2100049C210004E06108041500000298
:10364C009C210004D400A000868000009C21000472
:10365C009C2100049C2100049C2100049C2100045A
:10366C009C2100049C210004E06108041500000268
:10367C009C210004D400A000868000009C21000442
:10368C009C2100049C2100049C2100049C2100042A
:10369C009C2100049C210004E06108041500000238
:1036AC009C210004D400A000868000009C21000412
:1036BC009C2100049C2100049C2100049C210004FA
:1036CC009C2100049C210004E06108041500000208
:1036DC009C210004D400A000868000009C210004E2
:1036EC009C2100049C2100049C2100049C210004CA
:1036FC009C2100049C210004E061080415000002D8
:10370C009C210004D400A000868000009C210004B1
:10371C009C2100049C2100049C2100049C21000499
:10372C009C2100049C210004E061080415000002A7
:10373C009C210004D400A000868000009C21000481
:10374C009C2100049C2100049C2100049C21000469
:10375C009C2100049C210004E06108041500000277
:10376C009C210004D400A000868000009C21000451
:10377C009C2100049C2100049C2100049C21000439
:10378C009C2100049C210004E06108041500000247
:10379C009C210004D400A000868000009C21000421
:1037AC009C2100049C2100049C2100049C21000409
:1037BC009C2100049C210004E06108041500000217
:1037CC009C210004D400A000868000009C210004F1
:1037DC009C2100049C2100049C2100049C210004D9
:1037EC009C2100049C210004E061080415000002E7
:1037FC009C210004D400A000868000009C210004C1
:10380C009C2100049C2100049C2100049C210004A8
:10381C009C2100049C210004E061080415000002B6
:10382C009C210004D400A000868000009C21000490
:10383C009C2100049C2100049C2100049C21000478
:10384C009C2100049C210004E06108041500000286
:10385C009C210004D400A000868000009C21000460
:10386C009C2100049C2100049C2100049C21000448
:10387C009C2100049C210004E06108041500000256
:10388C009C210004D400A000868000009C21000430
:10389C009C2100049C2100049C2100049C21000418
:1038AC009C2100049C210004E06108041500000226
:1038BC009C210004D400A000868000009C21000400
:1038CC009C2100049C2100049C2100049C210004E8
:1038DC009C2100049C210004E061080415000002F6
:1038EC009C210004D400A000868000009C210004D0
:1038FC009C2100049C2100049C2100049C210004B8
:10390C009C2100049C210004E061080415000002C5
:10391C009C210004D400A000868000009C2100049F
:10392C009C2100049C2100049C2100049C21000487
:10393C009C2100049C210004E06108041500000295
:10394C009C210004D400A000868000009C2100046F
:10395C009C2100049C2100049C2100049C21000457
:10396C009C2100049C210004E06108041500000265
:10397C009C210004D400A000868000009C2100043F
:10398C009C2100049C2100049C2100049C21000427
:10399C009C2100049C210004E06108041500000235
:1039AC009C210004D400A000868000009C2100040F
:1039BC009C2100049C2100049C2100049C210004F7
:1039CC009C2100049C210004E06108041500000205
:1039DC009C210004D400A000868000009C210004DF
:1039EC009C2100049C2100049C2100049C210004C7
:1039FC009C2100049C210004E061080415000002D5
:103A0C009C210004D400A000868000009C210004AE
:103A1C009C2100049C2100049C2100049C21000496
:103A2C009C2100049C210004E061080415000002A4
:103A3C009C210004D400A000868000009C2100047E
:103A4C009C2100049C2100049C2100049C21000466
:103A5C009C2100049C210004E06108041500000274
:103A6C009C210004D400A000868000009C2100044E
:103A7C009C2100049C2100049C2100049C21000436
:103A8C009C2100049C210004E06108041500000244
:103A9C009C210004D400A000868000009C2100041E
:103AAC009C2100049C2100049C2100049C21000406
:103ABC009C2100049C210004E06108041500000214
:103ACC009C210004D400A000868000009C210004EE
:103ADC009C2100049C2100049C2100049C210004D6
:103AEC009C2100049C210004E061080415000002E4
:103AFC009C210004D400A000868000009C210004BE
:103B0C009C2100049C2100049C2100049C210004A5
:103B1C009C2100049C210004E061080415000002B3
:103B2C009C210004D400A000868000009C2100048D
:103B3C009C2100049C2100049C2100049C21000475
:103B4C009C2100049C210004E06108041500000283
:103B5C009C210004D400A000868000009C2100045D
:103B6C009C2100049C2100049C2100049C21000445
:103B7C009C2100049C210004E06108041500000253
:103B8C009C210004D400A000868000009C2100042D
:103B9C009C2100049C2100049C2100049C21000415
:103BAC009C2100049C210004E06108041500000223
:103BBC009C210004D400A000868000009C210004FD
:103BCC009C2100049C2100049C2100049C210004E5
:103BDC009C2100049C210004E061080415000002F3
:103BEC009C210004D400A000868000009C210004CD
:103BFC009C2100049C2100049C2100049C210004B5
:103C0C009C2100049C210004E061080415000002C2
:103C1C009C210004D400A000868000009C2100049C
:103C2C009C2100049C2100049C2100049C21000484
:103C3C009C2100049C210004E06108041500000292
:103C4C009C210004D400A000868000009C2100046C
:103C5C009C2100049C2100049C2100049C21000454
:103C6C009C2100049C210004E06108041500000262
:103C7C009C210004D400A000868000009C2100043C
:103C8C009C2100049C2100049C2100049C21000424
:103C9C009C2100049C210004E06108041500000232
:103CAC009C210004D400A000868000009C2100040C
:103CBC009C2100049C2100049C2100049C210004F4
:103CCC009C2100049C210004E06108041500000202
:103CDC009C210004D400A000868000009C210004DC
:103CEC009C2100049C2100049C2100049C210004C4
:103CFC009C2100049C210004E061080415000002D2
:103D0C009C210004D400A000868000009C210004AB
:103D1C009C2100049C2100049C2100049C21000493
:103D2C009C2100049C210004E061080415000002A1
:103D3C009C210004D400A000868000009C2100047B
:103D4C009C2100049C2100049C2100049C21000463
:103D5C009C2100049C210004E06108041500000271
:103D6C009C210004D400A000868000009C2100044B
:103D7C009C2100049C2100049C2100049C21000433
:103D8C009C2100049C210004E06108041500000241
:103D9C009C210004D400A000868000009C2100041B
:103DAC009C2100049C2100049C2100049C21000403
:103DBC009C2100049C210004E06108041500000211
:103DCC009C210004D400A000868000009C210004EB
:103DDC009C2100049C2100049C2100049C210004D3
:103DEC009C2100049C210004E061080415000002E1
:103DFC009C210004D400A000868000009C210004BB
:103E0C009C2100049C2100049C2100049C210004A2
:103E1C009C2100049C210004E061080415000002B0
:103E2C009C210004D400A000868000009C2100048A
:103E3C009C2100049C2100049C2100049C21000472
:103E4C009C2100049C210004E06108041500000280
:103E5C009C210004D400A000868000009C2100045A
:103E6C009C2100049C2100049C2100049C21000442
:103E7C009C2100049C210004E06108041500000250
:103E8C009C210004D400A000868000009C2100042A
:103E9C009C2100049C2100049C2100049C21000412
:103EAC009C2100049C210004E06108041500000220
:103EBC009C210004D400A000868000009C210004FA
:103ECC009C2100049C2100049C2100049C210004E2
:103EDC009C2100049C210004E061080415000002F0
:103EEC009C210004D400A000868000009C210004CA
:103EFC009C2100049C2100049C2100049C210004B2
:103F0C009C2100049C210004E061080415000002BF
:103F1C009C210004D400A000868000009C21000499
:103F2C009C2100049C2100049C2100049C21000481
:103F3C009C2100049C210004E0610804150000028F
:103F4C009C210004D400A000868000009C21000469
:103F5C009C2100049C2100049C2100049C21000451
:103F6C009C2100049C210004E0610804150000025F
:103F7C009C210004D400A000868000009C21000439
:103F8C009C2100049C2100049C2100049C21000421
:103F9C009C2100049C210004E0610804150000022F
:103FAC009C210004D400A000868000009C21000409
:103FBC009C2100049C2100049C2100049C210004F1
:103FCC009C2100049C210004E061080415000002FF
:103FDC009C210004D400A000868000009C210004D9
:103FEC009C2100049C2100049C2100049C210004C1
:103FFC009C2100049C210004E061080415000002CF
:10400C009C210004D400A000868000009C210004A8
:10401C009C2100049C2100049C2100049C21000490
:10402C009C2100049C210004E0610804150000029E
:10403C009C210004D400A000868000009C21000478
:10404C009C2100049C2100049C2100049C21000460
:10405C009C2100049C210004E0610804150000026E
:10406C009C210004D400A000868000009C21000448
:10407C009C2100049C2100049C2100049C21000430
:10408C009C2100049C210004E0610804150000023E
:10409C009C210004D400A000868000009C21000418
:1040AC009C2100049C2100049C2100049C21000400
:1040BC009C2100049C210004E0610804150000020E
:1040CC009C210004D400A000868000009C210004E8
:1040DC009C2100049C2100049C2100049C210004D0
:1040EC009C2100049C210004E061080415000002DE
:1040FC009C210004D400A000868000009C210004B8
:10410C009C2100049C2100049C2100049C2100049F
:10411C009C2100049C210004E061080415000002AD
:10412C009C210004D400A000868000009C21000487
:10413C009C2100049C2100049C2100049C2100046F
:10414C009C2100049C210004E0610804150000027D
:10415C009C210004D400A000868000009C21000457
:10416C009C2100049C2100049C2100049C2100043F
:10417C009C2100049C210004E0610804150000024D
:10418C009C210004D400A000868000009C21000427
:10419C009C2100049C2100049C2100049C2100040F
:1041AC009C2100049C210004E0610804150000021D
:1041BC009C210004D400A000868000009C210004F7
:1041CC009C2100049C2100049C2100049C210004DF
:1041DC009C2100049C210004E061080415000002ED
:1041EC009C210004D400A000868000009C210004C7
:1041FC009C2100049C2100049C2100049C210004AF
:10420C009C2100049C210004E061080415000002BC
:10421C009C210004D400A000868000009C21000496
:10422C009C2100049C2100049C2100049C2100047E
:10423C009C2100049C210004E0610804150000028C
:10424C009C210004D400A000868000009C21000466
:10425C009C2100049C2100049C2100049C2100044E
:10426C009C2100049C210004E0610804150000025C
:10427C009C210004D400A000868000009C21000436
:10428C009C2100049C2100049C2100049C2100041E
:10429C009C2100049C210004E0610804150000022C
:1042AC009C210004D400A000868000009C21000406
:1042BC009C2100049C2100049C2100049C210004EE
:1042CC009C2100049C210004E061080415000002FC
:1042DC009C210004D400A000868000009C210004D6
:1042EC009C2100049C2100049C2100049C210004BE
:1042FC009C2100049C210004E061080415000002CC
:10430C009C210004D400A000868000009C210004A5
:10431C009C2100049C2100049C2100049C2100048D
:10432C009C2100049C210004E0610804150000029B
:10433C009C210004D400A000868000009C21000475
:10434C009C2100049C2100049C2100049C2100045D
:10435C009C2100049C210004E0610804150000026B
:10436C009C210004D400A000868000009C21000445
:10437C009C2100049C2100049C2100049C2100042D
:10438C009C2100049C210004E0610804150000023B
:10439C009C210004D400A000868000009C21000415
:1043AC009C2100049C2100049C2100049C210004FD
:1043BC009C2100049C210004E0610804150000020B
:1043CC009C210004D400A000868000009C210004E5
:1043DC009C2100049C2100049C2100049C210004CD
:1043EC009C2100049C210004E061080415000002DB
:1043FC009C210004D400A000868000009C210004B5
:10440C009C2100049C2100049C2100049C2100049C
:10441C009C2100049C210004E061080415000002AA
:10442C009C210004D400A000868000009C21000484
:10443C009C2100049C2100049C2100049C2100046C
:10444C009C2100049C210004E0610804150000027A
:10445C009C210004D400A000868000009C21000454
:10446C009C2100049C2100049C2100049C2100043C
:10447C009C2100049C210004E0610804150000024A
:10448C009C210004D400A000868000009C21000424
:10449C009C2100049C2100049C2100049C2100040C
:1044AC009C2100049C210004E0610804150000021A
:1044BC009C210004D400A000868000009C210004F4
:1044CC009C2100049C2100049C2100049C210004DC
:1044DC009C2100049C210004E061080415000002EA
:1044EC009C210004D400A000868000009C210004C4
:1044FC009C2100049C2100049C2100049C210004AC
:10450C009C2100049C210004E061080415000002B9
:10451C009C210004D400A000868000009C21000493
:10452C009C2100049C2100049C2100049C2100047B
:10453C009C2100049C210004E06108041500000289
:10454C009C210004D400A000868000009C21000463
:10455C009C2100049C2100049C2100049C2100044B
:10456C009C2100049C210004E06108041500000259
:10457C009C210004D400A000868000009C21000433
:10458C009C2100049C2100049C2100049C2100041B
:10459C009C2100049C210004E06108041500000229
:1045AC009C210004D400A000868000009C21000403
:1045BC009C2100049C2100049C2100049C210004EB
:1045CC009C2100049C210004E061080415000002F9
:1045DC009C210004D400A000868000009C210004D3
:1045EC009C2100049C2100049C2100049C210004BB
:1045FC009C2100049C210004E061080415000002C9
:10460C009C210004D400A000868000009C210004A2
:10461C009C2100049C2100049C2100049C2100048A
:10462C009C2100049C210004E06108041500000298
:10463C009C210004D400A000868000009C21000472
:10464C009C2100049C2100049C2100049C2100045A
:10465C009C2100049C210004E06108041500000268
:10466C009C210004D400A000868000009C21000442
:10467C009C2100049C2100049C2100049C2100042A
:10468C009C2100049C210004E06108041500000238
:10469C009C210004D400A000868000009C21000412
:1046AC009C2100049C2100049C2100049C210004FA
:1046BC009C2100049C210004E06108041500000208
:1046CC009C210004D400A000868000009C210004E2
:1046DC009C2100049C2100049C2100049C210004CA
:1046EC009C2100049C210004E061080415000002D8
:1046FC009C210004D400A000868000009C210004B2
:10470C009C2100049C2100049C2100049C21000499
:10471C009C2100049C210004E061080415000002A7
:10472C009C210004D400A000868000009C21000481
:10473C009C2100049C2100049C2100049C21000469
:10474C009C2100049C210004E06108041500000277
:10475C009C210004D400A000868000009C21000451
:10476C009C2100049C2100049C2100049C21000439
:10477C009C2100049C210004E06108041500000247
:10478C009C210004D400A000868000009C21000421
:10479C009C2100049C2100049C2100049C21000409
:1047AC009C2100049C210004E06108041500000217
:1047BC009C210004D400A000868000009C210004F1
:1047CC009C2100049C2100049C2100049C210004D9
:1047DC009C2100049C210004E061080415000002E7
:1047EC009C210004D400A000868000009C210004C1
:1047FC009C2100049C2100049C2100049C210004A9
:10480C009C2100049C210004E061080415000002B6
:10481C009C210004D400A000868000009C21000490
:10482C009C2100049C2100049C2100049C21000478
:10483C009C2100049C210004E06108041500000286
:10484C009C210004D400A000868000009C21000460
:10485C009C2100049C2100049C2100049C21000448
:10486C009C2100049C210004E06108041500000256
:10487C009C210004D400A000868000009C21000430
:10488C009C2100049C2100049C2100049C21000418
:10489C009C2100049C210004E06108041500000226
:1048AC009C210004D400A000868000009C21000400
:1048BC009C2100049C2100049C2100049C210004E8
:1048CC009C2100049C210004E061080415000002F6
:1048DC009C210004D400A000868000009C210004D0
:1048EC009C2100049C2100049C2100049C210004B8
:1048FC009C2100049C210004E061080415000002C6
:10490C009C210004D400A000868000009C2100049F
:10491C009C2100049C2100049C2100049C21000487
:10492C009C2100049C210004E06108041500000295
:10493C009C210004D400A000868000009C2100046F
:10494C009C2100049C2100049C2100049C21000457
:10495C009C2100049C210004E06108041500000265
:10496C009C210004D400A000868000009C2100043F
:10497C009C2100049C2100049C2100049C21000427
:10498C009C2100049C210004E06108041500000235
:10499C009C210004D400A000868000009C2100040F
:1049AC009C2100049C2100049C2100049C210004F7
:1049BC009C2100049C210004E06108041500000205
:1049CC009C210004D400A000868000009C210004DF
:1049DC009C2100049C2100049C2100049C210004C7
:1049EC009C2100049C210004E061080415000002D5
:1049FC009C210004D400A000868000009C210004AF
:104A0C009C2100049C2100049C2100049C21000496
:104A1C009C2100049C210004E061080415000002A4
:104A2C009C210004D400A000868000009C2100047E
:104A3C009C2100049C2100049C2100049C21000466
:104A4C009C2100049C210004E06108041500000274
:104A5C009C210004D400A000868000009C2100044E
:104A6C009C2100049C2100049C2100049C21000436
:104A7C009C2100049C210004E06108041500000244
:104A8C009C210004D400A000868000009C2100041E
:104A9C009C2100049C2100049C2100049C21000406
:104AAC009C2100049C210004E06108041500000214
:104ABC009C210004D400A000868000009C210004EE
:104ACC009C2100049C2100049C2100049C210004D6
:104ADC009C2100049C210004E061080415000002E4
:104AEC009C210004D400A000868000009C210004BE
:104AFC009C2100049C2100049C2100049C210004A6
:104B0C009C2100049C210004E061080415000002B3
:104B1C009C210004D400A000868000009C2100048D
:104B2C009C2100049C2100049C2100049C21000475
:104B3C009C2100049C210004E06108041500000283
:104B4C009C210004D400A000868000009C2100045D
:104B5C009C2100049C2100049C2100049C21000445
:104B6C009C2100049C210004E06108041500000253
:104B7C009C210004D400A000868000009C2100042D
:104B8C009C2100049C2100049C2100049C21000415
:104B9C009C2100049C210004E06108041500000223
:104BAC009C210004D400A000868000009C210004FD
:104BBC009C2100049C2100049C2100049C210004E5
:104BCC009C2100049C210004E061080415000002F3
:104BDC009C210004D400A000868000009C210004CD
:104BEC009C2100049C2100049C2100049C210004B5
:104BFC009C2100049C210004E061080415000002C3
:104C0C009C210004D400A000868000009C2100049C
:104C1C009C2100049C2100049C2100049C21000484
:104C2C009C2100049C210004E06108041500000292
:104C3C009C210004D400A000868000009C2100046C
:104C4C009C2100049C2100049C2100049C21000454
:104C5C009C2100049C210004E06108041500000262
:104C6C009C210004D400A000868000009C2100043C
:104C7C009C2100049C2100049C2100049C21000424
:104C8C009C2100049C210004E06108041500000232
:104C9C009C210004D400A000868000009C2100040C
:104CAC009C2100049C2100049C2100049C210004F4
:104CBC009C2100049C210004E06108041500000202
:104CCC009C210004D400A000868000009C210004DC
:104CDC009C2100049C2100049C2100049C210004C4
:104CEC009C2100049C210004E061080415000002D2
:104CFC009C210004D400A000868000009C210004AC
:104D0C009C2100049C2100049C2100049C21000493
:104D1C009C2100049C210004E061080415000002A1
:104D2C009C210004D400A000868000009C2100047B
:104D3C009C2100049C2100049C2100049C21000463
:104D4C009C2100049C210004E06108041500000271
:104D5C009C210004D400A000868000009C2100044B
:104D6C009C2100049C2100049C2100049C21000433
:104D7C009C2100049C210004E06108041500000241
:104D8C009C210004D400A000868000009C2100041B
:104D9C009C2100049C2100049C2100049C21000403
:104DAC009C2100049C210004E06108041500000211
:104DBC009C210004D400A000868000009C210004EB
:104DCC009C2100049C2100049C2100049C210004D3
:104DDC009C2100049C210004E061080415000002E1
:104DEC009C210004D400A000868000009C210004BB
:104DFC009C2100049C2100049C2100049C210004A3
:104E0C009C2100049C210004E061080415000002B0
:104E1C009C210004D400A000868000009C2100048A
:104E2C009C2100049C2100049C2100049C21000472
:104E3C009C2100049C210004E06108041500000280
:104E4C009C210004D400A000868000009C2100045A
:104E5C009C2100049C2100049C2100049C21000442
:104E6C009C2100049C210004E06108041500000250
:104E7C009C210004D400A000868000009C2100042A
:104E8C009C2100049C2100049C2100049C21000412
:104E9C009C2100049C210004E06108041500000220
:104EAC009C210004D400A000868000009C210004FA
:104EBC009C2100049C2100049C2100049C210004E2
:104ECC009C2100049C210004E061080415000002F0
:104EDC009C210004D400A000868000009C210004CA
:104EEC009C2100049C2100049C2100049C210004B2
:104EFC009C2100049C210004E061080415000002C0
:104F0C009C210004D400A000868000009C21000499
:104F1C009C2100049C2100049C2100049C21000481
:104F2C009C2100049C210004E0610804150000028F
:104F3C009C210004D400A000868000009C21000469
:104F4C009C2100049C2100049C2100049C21000451
:104F5C009C2100049C210004E0610804150000025F
:104F6C009C210004D400A000868000009C21000439
:104F7C009C2100049C2100049C2100049C21000421
:104F8C009C2100049C210004E0610804150000022F
:104F9C009C210004D400A000868000009C21000409
:104FAC009C2100049C2100049C2100049C210004F1
:104FBC009C2100049C210004E061080415000002FF
:104FCC009C210004D400A000868000009C210004D9
:104FDC009C2100049C2100049C2100049C210004C1
:104FEC009C2100049C210004E061080415000002CF
:104FFC009C210004D400A000868000009C210004A9
:10500C009C2100049C2100049C2100049C21000490
:10501C009C2100049C210004E0610804150000029E
:10502C009C210004D400A000868000009C21000478
:10503C009C2100049C2100049C2100049C21000460
:10504C009C2100049C210004E0610804150000026E
:10505C009C210004D400A000868000009C21000448
:10506C009C2100049C2100049C2100049C21000430
:10507C009C2100049C210004E0610804150000023E
:10508C009C210004D400A000868000009C21000418
:10509C009C2100049C2100049C2100049C21000400
:1050AC009C2100049C210004E0610804150000020E
:1050BC009C210004D400A000868000009C210004E8
:1050CC009C2100049C2100049C2100049C210004D0
:1050DC009C2100049C210004E061080415000002DE
:1050EC009C210004D400A000868000009C210004B8
:1050FC009C2100049C2100049C2100049C210004A0
:10510C009C2100049C210004E061080415000002AD
:10511C009C210004D400A000868000009C21000487
:10512C009C2100049C2100049C2100049C2100046F
:10513C009C2100049C210004E0610804150000027D
:10514C009C210004D400A000868000009C21000457
:10515C009C2100049C2100049C2100049C2100043F
:10516C009C2100049C210004E0610804150000024D
:10517C009C210004D400A000868000009C21000427
:10518C009C2100049C2100049C2100049C2100040F
:10519C009C2100049C210004E0610804150000021D
:1051AC009C210004D400A000868000009C210004F7
:1051BC009C2100049C2100049C2100049C210004DF
:1051CC009C2100049C210004E061080415000002ED
:1051DC009C210004D400A000868000009C210004C7
:1051EC009C2100049C2100049C2100049C210004AF
:1051FC009C2100049C210004E061080415000002BD
:10520C009C210004D400A000868000009C21000496
:10521C009C2100049C2100049C2100049C2100047E
:10522C009C2100049C210004E0610804150000028C
:10523C009C210004D400A000868000009C21000466
:10524C009C2100049C2100049C2100049C2100044E
:10525C009C2100049C210004E0610804150000025C
:10526C009C210004D400A000868000009C21000436
:10527C009C2100049C2100049C2100049C2100041E
:10528C009C2100049C210004E0610804150000022C
:10529C009C210004D400A000868000009C21000406
:1052AC009C2100049C2100049C2100049C210004EE
:1052BC009C2100049C210004E061080415000002FC
:1052CC009C210004D400A000868000009C210004D6
:1052DC009C2100049C2100049C2100049C210004BE
:1052EC009C2100049C210004E061080415000002CC
:1052FC009C210004D400A000868000009C210004A6
:10530C009C2100049C2100049C2100049C2100048D
:10531C009C2100049C210004E0610804150000029B
:10532C009C210004D400A000868000009C21000475
:10533C009C2100049C2100049C2100049C2100045D
:10534C009C2100049C210004E0610804150000026B
:10535C009C210004D400A000868000009C21000445
:10536C009C2100049C2100049C2100049C2100042D
:10537C009C2100049C210004E0610804150000023B
:10538C009C210004D400A000868000009C21000415
:10539C009C2100049C2100049C2100049C210004FD
:1053AC009C2100049C210004E0610804150000020B
:1053BC009C210004D400A000868000009C210004E5
:1053CC009C2100049C2100049C2100049C210004CD
:1053DC009C2100049C210004E061080415000002DB
:1053EC009C210004D400A000868000009C210004B5
:1053FC009C2100049C2100049C2100049C2100049D
:10540C009C2100049C210004E061080415000002AA
:10541C009C210004D400A000868000009C21000484
:10542C009C2100049C2100049C2100049C2100046C
:10543C009C2100049C210004E0610804150000027A
:10544C009C210004D400A000868000009C21000454
:10545C009C2100049C2100049C2100049C2100043C
:10546C009C2100049C210004E0610804150000024A
:10547C009C210004D400A000868000009C21000424
:10548C009C2100049C2100049C2100049C2100040C
:10549C009C2100049C210004E0610804150000021A
:1054AC009C210004D400A000868000009C210004F4
:1054BC009C2100049C2100049C2100049C210004DC
:1054CC009C2100049C210004E061080415000002EA
:1054DC009C210004D400A000868000009C210004C4
:1054EC009C2100049C2100049C2100049C210004AC
:1054FC009C2100049C210004E061080415000002BA
:10550C009C210004D400A000868000009C21000493
:10551C009C2100049C2100049C2100049C2100047B
:10552C009C2100049C210004E06108041500000289
:10553C009C210004D400A000868000009C21000463
:10554C009C2100049C2100049C2100049C2100044B
:10555C009C2100049C210004E06108041500000259
:10556C009C210004D400A000868000009C21000433
:10557C009C2100049C2100049C2100049C2100041B
:10558C009C2100049C210004E06108041500000229
:10559C009C210004D400A000868000009C21000403
:1055AC009C2100049C2100049C2100049C210004EB
:1055BC009C2100049C210004E061080415000002F9
:1055CC009C210004D400A000868000009C210004D3
:1055DC009C2100049C2100049C2100049C210004BB
:1055EC009C2100049C210004E061080415000002C9
:1055FC009C210004D400A000868000009C210004A3
:10560C009C2100049C2100049C2100049C2100048A
:10561C009C2100049C210004E06108041500000298
:10562C009C210004D400A000868000009C21000472
:10563C009C2100049C2100049C2100049C2100045A
:10564C009C2100049C210004E06108041500000268
:10565C009C210004D400A000868000009C21000442
:10566C009C2100049C2100049C2100049C2100042A
:10567C009C2100049C210004E06108041500000238
:10568C009C210004D400A000868000009C21000412
:10569C009C2100049C2100049C2100049C210004FA
:1056AC009C2100049C210004E06108041500000208
:1056BC009C210004D400A000868000009C210004E2
:1056CC009C2100049C2100049C2100049C210004CA
:1056DC009C2100049C210004E061080415000002D8
:1056EC009C210004D400A000868000009C210004B2
:1056FC009C2100049C2100049C2100049C2100049A
:10570C009C2100049C210004E061080415000002A7
:10571C009C210004D400A000868000009C21000481
:10572C009C2100049C2100049C2100049C21000469
:10573C009C2100049C210004E06108041500000277
:10574C009C210004D400A000868000009C21000451
:10575C009C2100049C2100049C2100049C21000439
:10576C009C2100049C210004E06108041500000247
:10577C009C210004D400A000868000009C21000421
:10578C009C2100049C2100049C2100049C21000409
:10579C009C2100049C210004E06108041500000217
:1057AC009C210004D400A000868000009C210004F1
:1057BC009C2100049C2100049C2100049C210004D9
:1057CC009C2100049C210004E061080415000002E7
:1057DC009C210004D400A000868000009C210004C1
:1057EC009C2100049C2100049C2100049C210004A9
:1057FC009C2100049C210004E061080415000002B7
:10580C009C210004D400A000868000009C21000490
:10581C009C2100049C2100049C2100049C21000478
:10582C009C2100049C210004E06108041500000286
:10583C009C210004D400A000868000009C21000460
:10584C009C2100049C2100049C2100049C21000448
:10585C009C2100049C210004E06108041500000256
:10586C009C210004D400A000868000009C21000430
:10587C009C2100049C2100049C2100049C21000418
:10588C009C2100049C210004E06108041500000226
:10589C009C210004D400A000868000009C21000400
:1058AC009C2100049C2100049C2100049C210004E8
:1058BC009C2100049C210004E061080415000002F6
:1058CC009C210004D400A000868000009C210004D0
:1058DC009C2100049C2100049C2100049C210004B8
:1058EC009C2100049C210004E061080415000002C6
:1058FC009C210004D400A000868000009C210004A0
:10590C009C2100049C2100049C2100049C21000487
:10591C009C2100049C210004E06108041500000295
:10592C009C210004D400A000868000009C2100046F
:10593C009C2100049C2100049C2100049C21000457
:10594C009C2100049C210004E06108041500000265
:10595C009C210004D400A000868000009C2100043F
:10596C009C2100049C2100049C2100049C21000427
:10597C009C2100049C210004E06108041500000235
:10598C009C210004D400A000868000009C2100040F
:10599C009C2100049C2100049C2100049C210004F7
:1059AC009C2100049C210004E06108041500000205
:1059BC009C210004D400A000868000009C210004DF
:1059CC009C2100049C2100049C2100049C210004C7
:1059DC009C2100049C210004E061080415000002D5
:1059EC009C210004D400A000868000009C210004AF
:1059FC009C2100049C2100049C2100049C21000497
:105A0C009C2100049C210004E061080415000002A4
:105A1C009C210004D400A000868000009C2100047E
:105A2C009C2100049C2100049C2100049C21000466
:105A3C009C2100049C210004E06108041500000274
:105A4C009C210004D400A000868000009C2100044E
:105A5C009C2100049C2100049C2100049C21000436
:105A6C009C2100049C210004E06108041500000244
:105A7C009C210004D400A000868000009C2100041E
:105A8C009C2100049C2100049C2100049C21000406
:105A9C009C2100049C210004E06108041500000214
:105AAC009C210004D400A000868000009C210004EE
:105ABC009C2100049C2100049C2100049C210004D6
:105ACC009C2100049C210004E061080415000002E4
:105ADC009C210004D400A000868000009C210004BE
:105AEC009C2100049C2100049C2100049C210004A6
:105AFC009C2100049C210004E061080415000002B4
:105B0C009C210004D400A000868000009C2100048D
:105B1C009C2100049C2100049C2100049C21000475
:105B2C009C2100049C210004E06108041500000283
:105B3C009C210004D400A000868000009C2100045D
:105B4C009C2100049C2100049C2100049C21000445
:105B5C009C2100049C210004E06108041500000253
:105B6C009C210004D400A000868000009C2100042D
:105B7C009C2100049C2100049C2100049C21000415
:105B8C009C2100049C210004E06108041500000223
:105B9C009C210004D400A000868000009C210004FD
:105BAC009C2100049C2100049C2100049C210004E5
:105BBC009C2100049C210004E061080415000002F3
:105BCC009C210004D400A000868000009C210004CD
:105BDC009C2100049C2100049C2100049C210004B5
:105BEC009C2100049C210004E061080415000002C3
:105BFC009C210004D400A000868000009C2100049D
:105C0C009C2100049C2100049C2100049C21000484
:105C1C009C2100049C210004E06108041500000292
:105C2C009C210004D400A000868000009C2100046C
:105C3C009C2100049C2100049C2100049C21000454
:105C4C009C2100049C210004E06108041500000262
:105C5C009C210004D400A000868000009C2100043C
:105C6C009C2100049C2100049C2100049C21000424
:105C7C009C2100049C210004E06108041500000232
:105C8C009C210004D400A000868000009C2100040C
:105C9C009C2100049C2100049C2100049C210004F4
:105CAC009C2100049C210004E06108041500000202
:105CBC009C210004D400A000868000009C210004DC
:105CCC009C2100049C2100049C2100049C210004C4
:105CDC009C2100049C210004E061080415000002D2
:105CEC009C210004D400A000868000009C210004AC
:105CFC009C2100049C2100049C2100049C21000494
:105D0C009C2100049C210004E061080415000002A1
:105D1C009C210004D400A000868000009C2100047B
:105D2C009C2100049C2100049C2100049C21000463
:105D3C009C2100049C210004E06108041500000271
:105D4C009C210004D400A000868000009C2100044B
:105D5C009C2100049C2100049C2100049C21000433
:105D6C009C2100049C210004E06108041500000241
:105D7C009C210004D400A000868000009C2100041B
:105D8C009C2100049C2100049C2100049C21000403
:105D9C009C2100049C210004E06108041500000211
:105DAC009C210004D400A000868000009C210004EB
:105DBC009C2100049C2100049C2100049C210004D3
:105DCC009C2100049C210004E061080415000002E1
:105DDC009C210004D400A000868000009C210004BB
:105DEC009C2100049C2100049C2100049C210004A3
:105DFC009C2100049C210004E061080415000002B1
:105E0C009C210004D400A000868000009C2100048A
:105E1C009C2100049C2100049C2100049C21000472
:105E2C009C2100049C210004E06108041500000280
:105E3C009C210004D400A000868000009C2100045A
:105E4C009C2100049C2100049C2100049C21000442
:105E5C009C2100049C210004E06108041500000250
:105E6C009C210004D400A000868000009C2100042A
:105E7C009C2100049C2100049C2100049C21000412
:105E8C009C2100049C210004E06108041500000220
:105E9C009C210004D400A000868000009C210004FA
:105EAC009C2100049C2100049C2100049C210004E2
:105EBC009C2100049C210004E061080415000002F0
:105ECC009C210004D400A000868000009C210004CA
:105EDC009C2100049C2100049C2100049C210004B2
:105EEC009C2100049C210004E061080415000002C0
:105EFC009C210004D400A000868000009C2100049A
:105F0C009C2100049C2100049C2100049C21000481
:105F1C009C2100049C210004E0610804150000028F
:105F2C009C210004D400A000868000009C21000469
:105F3C009C2100049C2100049C2100049C21000451
:105F4C009C2100049C210004E0610804150000025F
:105F5C009C210004D400A000868000009C21000439
:105F6C009C2100049C2100049C2100049C21000421
:105F7C009C2100049C210004E0610804150000022F
:105F8C009C210004D400A000868000009C21000409
:105F9C009C2100049C2100049C2100049C210004F1
:105FAC009C2100049C210004E061080415000002FF
:105FBC009C210004D400A000868000009C210004D9
:105FCC009C2100049C2100049C2100049C210004C1
:105FDC009C2100049C210004E061080415000002CF
:105FEC009C210004D400A000868000009C210004A9
:105FFC009C2100049C2100049C2100049C21000491
:10600C009C2100049C210004E0610804150000029E
:10601C009C210004D400A000868000009C21000478
:10602C009C2100049C2100049C2100049C21000460
:10603C009C2100049C210004E0610804150000026E
:10604C009C210004D400A000868000009C21000448
:10605C009C2100049C2100049C2100049C21000430
:10606C009C2100049C210004E0610804150000023E
:10607C009C210004D400A000868000009C21000418
:10608C009C2100049C2100049C2100049C21000400
:10609C009C2100049C210004E0610804150000020E
:1060AC009C210004D400A000868000009C210004E8
:1060BC009C2100049C2100049C2100049C210004D0
:1060CC009C2100049C210004E061080415000002DE
:1060DC009C210004D400A000868000009C210004B8
:1060EC009C2100049C2100049C2100049C210004A0
:1060FC009C2100049C210004E061080415000002AE
:10610C009C210004D400A000868000009C21000487
:10611C009C2100049C2100049C2100049C2100046F
:10612C009C2100049C210004E0610804150000027D
:10613C009C210004D400A000868000009C21000457
:10614C009C2100049C2100049C2100049C2100043F
:10615C009C2100049C210004E0610804150000024D
:10616C009C210004D400A000868000009C21000427
:10617C009C2100049C2100049C2100049C2100040F
:10618C009C2100049C210004E0610804150000021D
:10619C009C210004D400A000868000009C210004F7
:1061AC009C2100049C2100049C2100049C210004DF
:1061BC009C2100049C210004E061080415000002ED
:1061CC009C210004D400A000868000009C210004C7
:1061DC009C2100049C2100049C2100049C210004AF
:1061EC009C2100049C210004E061080415000002BD
:1061FC009C210004D400A000868000009C21000497
:10620C009C2100049C2100049C2100049C2100047E
:10621C009C2100049C210004E0610804150000028C
:10622C009C210004D400A000868000009C21000466
:10623C009C2100049C2100049C2100049C2100044E
:10624C009C2100049C210004E0610804150000025C
:10625C009C210004D400A000868000009C21000436
:10626C009C2100049C2100049C2100049C2100041E
:10627C009C2100049C210004E0610804150000022C
:10628C009C210004D400A000868000009C21000406
:10629C009C2100049C2100049C2100049C210004EE
:1062AC009C2100049C210004E061080415000002FC
:1062BC009C210004D400A000868000009C210004D6
:1062CC009C2100049C2100049C2100049C210004BE
:1062DC009C2100049C210004E061080415000002CC
:1062EC009C210004D400A000868000009C210004A6
:1062FC009C2100049C2100049C2100049C2100048E
:10630C009C2100049C210004E0610804150000029B
:10631C009C210004D400A000868000009C21000475
:10632C009C2100049C2100049C2100049C2100045D
:10633C009C2100049C210004E0610804150000026B
:10634C009C210004D400A000868000009C21000445
:10635C009C2100049C2100049C2100049C2100042D
:10636C009C2100049C210004E0610804150000023B
:10637C009C210004D400A000868000009C21000415
:10638C009C2100049C2100049C2100049C210004FD
:10639C009C2100049C210004E0610804150000020B
:1063AC009C210004D400A000868000009C210004E5
:1063BC009C2100049C2100049C2100049C210004CD
:1063CC009C2100049C210004E061080415000002DB
:1063DC009C210004D400A000868000009C210004B5
:1063EC009C2100049C2100049C2100049C2100049D
:1063FC009C2100049C210004E061080415000002AB
:10640C009C210004D400A000868000009C21000484
:10641C009C2100049C2100049C2100049C2100046C
:10642C009C2100049C210004E0610804150000027A
:10643C009C210004D400A000868000009C21000454
:10644C009C2100049C2100049C2100049C2100043C
:10645C009C2100049C210004E0610804150000024A
:10646C009C210004D400A000868000009C21000424
:10647C009C2100049C2100049C2100049C2100040C
:10648C009C2100049C210004E0610804150000021A
:10649C009C210004D400A000868000009C210004F4
:1064AC009C2100049C2100049C2100049C210004DC
:1064BC009C2100049C210004E061080415000002EA
:1064CC009C210004D400A000868000009C210004C4
:1064DC009C2100049C2100049C2100049C210004AC
:1064EC009C2100049C210004E061080415000002BA
:1064FC009C210004D400A000868000009C21000494
:10650C009C2100049C2100049C2100049C2100047B
:10651C009C2100049C210004E06108041500000289
